:020000040800F2
:10000000080E0020E5020008E55600082F51000800
:10001000215600081D2B00080162000800000000A6
:100020000000000000000000000000002B5A000843
:10003000B12D000800000000295A00082D5A0008C0
:10004000FF020008FF020008FF020008FF0200088C
:10005000FF020008FF020008FF020008FF0200087C
:10006000FF020008FF020008FF020008212B000821
:10007000FF020008FF020008FF020008FF0200085C
:10008000FF020008FF020008FF020008FF0200084C
:10009000FF020008FF020008FF020008FF0200083C
:1000A000FF020008FF020008FF020008FF0200082C
:1000B000FF020008FF020008FF020008FF0200081C
:1000C000FF020008FF020008FF020008FF0200080C
:1000D000FF02000821610008FF020008FF0200087B
:1000E000B32D0008FF020008FF020008FF0200080D
:1000F000FF020008FF020008FF020008FF020008DC
:10010000FF020008FF020008FF020008FF020008CB
:10011000FF020008FF020008FF020008FF020008BB
:10012000FF020008FF020008FF020008FF020008AB
:10013000FF020008FF020008FF020008FF0200089B
:10014000FF020008FF020008FF020008FF0200088B
:10015000FF020008FF020008FF020008FF0200087B
:10016000FF020008FF020008FF020008FF0200086B
:10017000FF020008FF020008FF020008FF0200085B
:10018000FF020008FF020008FF020008FF0200084B
:10019000FF02000800000000FF020008FF02000844
:1001A000FF020008FF020008FF020008FF0200082B
:1001B000FF020008FF020008FF020008FF0200081B
:1001C000FF020008FF020008FF020008FF0200080B
:1001D000FF020008FF02000800F002F800F072F8C9
:1001E0000AA090E8000C82448344AAF10107DA4592
:1001F00001D100F067F8AFF2090EBAE80F0013F072
:10020000010F18BFFB1A43F0010318477475000073
:10021000947500000A444FF0000C10F8013B13F0F5
:10022000070408BF10F8014B1D1108BF10F8015B4F
:10023000641E05D010F8016B641E01F8016BF9D142
:1002400013F0080F1EBF10F8014BAD1C0C1B09D199
:100250006D1E58BF01F801CBFAD505E014F8016B0B
:1002600001F8016B6D1EF9D59142D6D3704700009D
:100270000023002400250026103A28BF78C1FBD8AF
:10028000520728BF30C148BF0B607047662906F08F
:100290007A85642900F0DE80002070471FB506F0E3
:1002A00068FD00F05BFF04000020002106F090FADA
:1002B000401C60600020002106F074FAE0601FBD61
:1002C00010B510BD01F010FA1146FFF7E7FF06F078
:1002D000CDF901F069FC03B4FFF7F2FF03BC01F0B4
:1002E000CBFC00000948804709480047FEE7FEE7CD
:1002F000FEE7FEE7FEE7FEE7FEE7FEE7FEE7FEE7D6
:1003000004480549054A064B70470000995A000801
:10031000D901000808080020080E0020080A002063
:10032000080A002053EA020C00F069802DE9F04B26
:100330004FF00006002B1FBFB3FA83F503FA05F454
:1003400024FA05F65E4012BF1643B2FA82F502FAAD
:1003500005F4C5F120051EBF22FA05FC44EA0C0491
:10036000203556EA044C4FEA144418BF641C4FF081
:1003700000084FF00009904271EB030C39D30029BB
:1003800019BFB1FA81F701FA07F6B0FA80F700FA5F
:1003900007F6C7F120071EBF20FA07FC46EA0C0645
:1003A0002037B6FBF4FCA7EB0507103F07F01F0B47
:1003B000CBF120060CFA0BFB2CFA06F644BFB34631
:1003C0000026202FA4BF5E464FF0000B5BEA060C10
:1003D00008BF4FF0010B19EB0B09ABFB027C48EB9C
:1003E0000608C01B06FB02CC0BFB03CC71EB0C0117
:1003F000C1E70B46024641464846BDE8F08B13B5BF
:100400004FF000004FF00001AFF30080BDE81C404A
:10041000704700000FB4044910B503AA029800F019
:1004200003FC10BC5DF814FB640200200FB41CB583
:10043000074B06AA7B4469460090059800F0DBFB59
:100440000020694600F0EAFB1CBC5DF814FB0000CC
:10045000E50700002DE9F0410646002410687529E3
:10046000314616A510D0AFF30080002802DA4042D2
:1004700013A507E031688A0701D512A502E04907F4
:1004800004D511A5012401E0AFF3008000210A2268
:1004900006F1240709E0B0FBF2FCB0FBF2F302FB2B
:1004A0001C00303078541846491C0028F3D12346EC
:1004B0002A463046BDE8F04100F031B900000000A6
:1004C0002D0000002B000000200000002DE9F04767
:1004D0004FF0000A89460446C0F820A02046E16893
:1004E0008847002876D0252806D0D4E901219047F6
:1004F000206A401C2062F1E7E16820460026884718
:10050000C4F81CA005460027C4F818A02A2D09D05D
:10051000284606F023F838B304EB8708303DC8F8C6
:10052000185019E059F8041B204604EB870291612A
:10053000E1688847012F054618D1E069002820DAD4
:1005400026F020061DE0D8F8180000EB800005EB2F
:1005500040003038C8F818002046E1688847054652
:1005600005F0FCFF0028EED1012F0AD02E2D08D176
:100570002046E16888477F1C0546022F46F020068A
:10058000C4DBA069002803DA404246F00106A061FE
:10059000F00701D026F010066C2D0AD0682D08D087
:1005A0004C2D39D06A2D35D0742D35D07A2D33D0DD
:1005B00016E0E1682F4620468847B84205460AD132
:1005C0006C2F27D04FF48060E168064320468847AF
:1005D000054605E027E06C2F1AD04FF480700643E3
:1005E0000DB3A5F14100192802D8203546F4006664
:1005F0004A462946204626604E46FFF747FE80B110
:1006000001280BD0F61D26F0070000F1080965E768
:100610004020E4E78020D7E70020D5E706F1040971
:100620005CE7284661E7206ABDE8F0870FB400B5B3
:100630008DB010A9099000910B904FF0FF300A90F7
:1006400000200C90064878440690064878446A4694
:1006500007900F9909A800F051FD0DB05DF814FB4B
:10066000D30A0000EB0A000030B505460B462A46C7
:1006700013F8014B12F8010B08B1A042F8D01CB1DD
:10068000002802D06D1CF1E7284630BD10B5431C90
:1006900002E010F8011B71B18107FAD14FF001326D
:1006A00002C88C1A8C4314EAC211F9D0C01A0A0687
:1006B00003D0C01E10BDC01A10BD0A0401D0801E98
:1006C00010BD0902FCD0401E10BD4FF0000200B565
:1006D000134694469646203922BFA0E80C50A0E865
:1006E0000C50B1F12001BFF4F7AF090728BFA0E813
:1006F0000C5048BF0CC05DF804EB890028BF40F8DF
:10070000042B08BF704748BF20F8022B11F0804F20
:1007100018BF00F8012B70477047704770472DE9EC
:10072000F0470D4699469246044600F124080168B8
:10073000880604D5E06921F01001216000E0012065
:10074000A84201DD471B00E00027A1697A1902EBEE
:100750000900081AA0612078C00602D42046AFF331
:100760000080002608E0D4E901211AF8060090472D
:10077000206A401C761C20624E45F4DB2078C006BF
:100780000AD52046AFF3008006E0D4E901213020ED
:100790009047206A401C2062381EA7F10107F4DC54
:1007A00007E0D4E9012118F805009047206A401CB1
:1007B0002062281EA5F10105F3DC2046AFF300807E
:1007C0002078000602D50220BDE8F0870120FBE773
:1007D00070472DE9FF4F0C461E464FF0FF378BB098
:1007E000D2E90001DDF860800A908A46C1F30A551B
:1007F00005B93D46002108464FF00000BAF1000F50
:1008000000F4400005DA00EB80004FF4400101EAFB
:1008100050004FEA9059B9F1010F00DDB9460A982E
:1008200050EA4A000ED044F61050A5F2FF35454379
:100830002F14B8F1000F1ED07542291E1EDDC9F11C
:1008400000021CE0B8F1010F4FF0000001D0302190
:1008500003E0F24305E02154401CB042FBDB30468C
:100860000022002121540B99C1F80880C1E9002021
:100870000FB0BDE8F08FBD1B6D1CDEE74A4600DA05
:10088000694206A800F0BAFE06AB93E8070003AB86
:1008900083E8070050460A9901F0F5F98DE8070052
:1008A000A0F500501F3800900398002D09DD42F29A
:1008B0001F014A46084403A90390684601F07FFCE3
:1008C00008E0A0F500504A461F3803A90390684687
:1008D00001F09DFC8DE807000004000C03D04FF0F0
:1008E000FF30410800E01046B8F1000F03D00022AD
:1008F000009215461EE0751E05D400F037FC30321C
:1009000062556D1EF9D5B3460122084302D000227C
:100910007F1C04E02078302801D100227F1E002AAD
:10092000099786D01DE0112D07DA00F01FFC303248
:1009300062556D1C50EA0102F5D1084302D00098BF
:10094000C8B10EE00021681E05E0235C625C6354C0
:100950002254401E491C8142F7DBAB46A81B401EB7
:100960000990002004F80B000B98099AC0F8088041
:10097000C0E9002B7CE711264FF0000859E72DE96C
:10098000F04F88460446D21D22F0070191B0D1E90C
:100990000001CDE90A0105F0B3FC02460B98C00F37
:1009A00001D02D2007E02068810701D52B2002E02F
:1009B000202101EAC000032A099001D0072A05DBA3
:1009C00003464146204600F01FFC0BE120788006DC
:1009D00001D5E06900E00620B8F1650F814606D038
:1009E000B8F1660F18D0B8F1670F70D131E0002070
:1009F000B9F1110F009001DB112301E009F10103AE
:100A00000AAA01A90CA8FFF7E4FEDDE90C70002694
:100A100009F10105834647E001204B4600904FF065
:100A200000470AAA01A90CA8FFF7D3FEDDE90DB023
:100A30000C995D46002610B909F101000D18B9EBBB
:100A4000050003D4C0F1FF3609F10105A5EB09004B
:100A50002BE0B9F1010F01DA4FF001090020B9F1E3
:100A6000110F0090484601DD112300E003460AAA59
:100A700001A90CA8FFF7ADFEDDE90C704D4600267C
:100A80008346207800070AD4AB4500DA5D4601A80A
:100A9000012D04DD411911F8011C302907D04F4503
:100AA00002DA17F1040F04DA012082460FE06D1E0E
:100AB000EEE7002F02DCED1B3E4403E0781CA84269
:100AC00000DD7D1CB81B00F1010A4FF000472078C3
:100AD000000703D4AA4501DB4FF0FF3A0021B7F12C
:100AE000004F0DF143088DF8431024D002202B2332
:100AF000002F01DA7F422D230A21021EA0F10100FE
:100B000000DC5FB197FBF1FC97FBF1F201FB1C7C71
:100B100017460CF1300C08F801CDEEE7A8F1010002
:100B200003702188090501D5452100E06521A0F168
:100B3000010800F8011C09980FA9A1EB0807FF1D87
:100B400000B10120411901EBEA70A1693844081A8B
:100B5000401EA0612078C00602D42046AFF300807A
:100B6000099828B1D4E901219047206A401C2062ED
:100B70002078C00622D52046AFF300801EE0002E6C
:100B800004DBB34502DD01A8805D00E03020D4E93C
:100B900001219047206A401C2062761CAAF10100C6
:100BA0005FEA000A0AD100F0D9FAC0680168405C27
:100BB000D4E901219047206A401C2062281EA5F13B
:100BC0000105DCDC07E0D4E9012118F8010B9047AE
:100BD000206A401C2062381EA7F10107F3DC204682
:100BE000AFF30080032011B043E6000001694A1C06
:100BF00002610878704700B58FB0CDE9013100215E
:100C0000059105497944CDE9031011466846FFF77F
:100C10005DFC0FB000BD0000E5FFFFFF0A6802F8B1
:100C2000010B0A6070470000074B70B50D467B440E
:100C3000FFF7E1FF0446284600F04EFD10B14FF0EB
:100C4000FF3070BD204670BD8F5900002DE9FF4F69
:100C5000064689B00878FF2806D0491C2D2805D003
:100C600000244FF0000908E000200CE00124F8E720
:100C700009EB8903491C00EB43090878FF28F7D1E9
:100C800014B1C9F100008146107800252C46AA460F
:100C900029462D2801D02B2804D1521C2D2813D0F1
:100CA000002082468B461078FF280FD04FF0000CB2
:100CB0000A21521CA5FB017804FB018105FB0C11E4
:100CC000C5194BEB0104EEE70120EAE700210846D5
:100CD0004FF00000BAF1000F02D000EB8000400896
:100CE000C0F38158B8F1010F01DD4FF0FF380C98C7
:100CF00009EB000755EA040009D04FF0020917F587
:100D0000FA7F0BDA4FEACA70C6E900B012E04FEA88
:100D1000CA70C6E900B00DB0BDE8F08FB7F5FA7F34
:100D20000DDDF0487844D0E90010C6E9001040EA33
:100D3000CA70706000F016FAC0F80090EBE7391E38
:100D400002DAC8F1000200E0424600DA794206A861
:100D500000F054FC06AB93E8070003AB83E8070000
:100D600044F23E005BEA04010090584604D144F28C
:100D70001E012C465D460091210C0904014306D159
:100D80000099240444EA15442D041039009104F01C
:100D90007F41014306D10099240244EA15642D02E3
:100DA0000839009104F07041014306D100992401F3
:100DB00044EA15742D01091F009104F040410143DC
:100DC00006D10099A40044EA9574AD00891E0091F3
:100DD00004F00041084304D100986D196441401E9D
:100DE000009042466846002FCDE9014503A902DD87
:100DF00001F021FA01E001F0F6F9BAF1000F044622
:100E00000D4601D084F0004440F2FF7724F000400A
:100E1000284303D0C4F30A50B84212D100F0A2F91B
:100E2000C0F80090C4F30A50B8420AD1AE487844E2
:100E3000D0E90010C6E9001004F0004108437060DA
:100E400069E7C6E9005466E72DE9FF4F1F464FF0FA
:100E5000000A4FF0FF38454691B0D7E90146CDF87A
:100E60003CA000F07BF9C0680168405C1090B96953
:100E700012986D1C8847396A814688470028F6D148
:100E8000B9F1FF3F0AD0002E24F4D06411DDB9F18E
:100E90002B0F08D0B9F12D0F0BD102E0404615B051
:100EA0003AE744F48064B96912986D1C8847761E4D
:100EB0008146600504A901D52D2000E02B20002EDD
:100EC00001F1010B0DF130088DF810003FDDB9F193
:100ED000690F08D0B9F1490F05D0B9F16E0F02D0F2
:100EE000B9F14E0F1CD13B4601A8009580E8500295
:100EF000DDE912126FF0020005F0ABFFC11CCED18C
:100F00000EE0B96912986D1C884781461398761EC9
:100F100044F4007405600F98401C002E0F9016DDFD
:100F2000B9F1300FEDD0B9F1780F02D0B9F1580F07
:100F30000DD10F9801280AD13B46CDE90054DDE9D7
:100F40001212001F029605F082FFC11CA7D1109952
:100F500089453ED144F0800406E01399681CAAF14B
:100F6000010A44F400740860B9696D1C1298761E79
:100F7000884730288146F0D02BE01099894505D16B
:100F8000200603D4761E44F0800418E0484605F09D
:100F9000E5FA08B3761E0DF123018B4544F4007485
:100FA00008D2A9F130000BF8010B200607D5AAF1F1
:100FB000010003E0200602D40AF101008246A005E8
:100FC00002D51399681C0860B96912986D1C88478E
:100FD0008146002ED1DC53E0002E51DDB9F1650FC2
:100FE00002D0B9F1450F4BD1A00549D5B9696D1CA7
:100FF0001298761E24F440748847002E81460CDD3A
:101000002B2804D0B9F12D0F07D144F48074B969AD
:1010100012986D1C8847761E8146E00501D52D216A
:1010200000E02B2108F8011BCDF8008021E0761E9E
:101030000DF13901884544F400740CD2A9F1300057
:1010400010F0FF0088F8000002D10099884509D906
:1010500008F1010806E0E00501D5244801E042F26C
:101060000F708246B96912986D1C884781461398A3
:101070000560002E04DD484605F070FA0028D6D140
:10108000F96912988847FF2053468BF8000088F8CA
:10109000000000200A900B9004AA0CA90AA8FFF7F0
:1010A000D5FDA00502D46FF00100F8E614F0240F7E
:1010B0000AD0E00714D13868DDE90A12031D3B604D
:1010C0000068C0E900120BE00AA9684605F0E0F9E3
:1010D000E00705D13868009A011D39600068026098
:1010E0002846DCE6786A00006E690000F1D8FFFF50
:1010F000026811441378016018467047D1600549B1
:101100007944516104497944116200211161114609
:1011100000F0BAB8EDFFFFFFED000000426842B1F9
:10112000016811F8013B23B1521EC0E900121846B4
:1011300070470121C160881E704742685AB1C36878
:10114000016843B983688B4205D0491E521CC0E92F
:101150000012002070474FF0FF3070470048704782
:10116000C407002000487047A407002030B5B0F144
:101170000A024FEA900E71F100034EEA817EB0EB55
:101180000E0061EB91014FEA101E4EEA017E10EB5A
:101190000E0041EB11114FEA102E4EEA016E10EBDA
:1011A0000E0041EB11214FEA104E4EEA014E10EBBA
:1011B0000E0041EB1141401841F100014FEAD0000F
:1011C00040EA41704FEAD10110EB80054FEA8104FB
:1011D00044EA907444EB01046D1944EB0404521B7F
:1011E000A3414FF0000348BF0A3200D530BD401C78
:1011F00041F1000130BD10B5044600F09BFA0068D3
:10120000005D00F0010010BD2DE9F0411F460446CD
:1012100003260168072A01F4006004DB08B116A563
:1012200005E016A503E008B115A500E015A521F01D
:1012300010002060A069C01EA0610FB1401EA06117
:101240002046AFF300804FB1D4E9012138469047E2
:10125000206A401C2062C01C206206E0206AFAE777
:10126000D4E9012115F8010B9047761EF8D22046EB
:10127000AFF30080BDE8F0814E414E006E616E001C
:10128000494E4600696E66002DE9F34F4FF0000AA3
:101290000C4656468DB001200C9001F10C000B90CD
:1012A00062690B980121904705002DD0252D2CD087
:1012B000216A8847C0B162690B9801219047216A71
:1012C00088470028F7D16269411E0B98904700E0DB
:1012D000761CA1690D988847216A88470028F7D1B4
:1012E000E1690D988847DBE7A1690D988847A84216
:1012F000074601D1761CD3E7E1690D9888477F1C2A
:1013000002D1BAF1000F6FD06BE162690B98002730
:101310003D46394690472A2804D162690B9801213D
:1013200090470125DFF8D08262690B980121904730
:10133000A0F130010A290AD24745E5DC07EB870115
:1013400000EB4107303FDFD445F01005ECE7E9063C
:1013500001D46FF000476C280AD04C2814D06828BC
:1013600015D06A280DD074281CD07A281AD01DE018
:1013700062690B98012190476C2802D045F0040562
:1013800014E045F002050DE045F020050AE0626931
:101390000B9801219047682802D045F0080505E028
:1013A00045F4006562690B9801219047C4E9015733
:1013B00065283DD019DC58287AD00CDC452837D078
:1013C00004DC252826D041289ED131E046282FD0A4
:1013D000472899D12CE05B2877D0612828D0632852
:1013E0007CD0642823D15AE0F6E06F2848D008DC8E
:1013F00066281DD067281BD0692821D06E2816D1F9
:1014000027E0702845D0732868D0752847D0782801
:101410000DD14DE0A1690D988847252805463FF478
:1014200069AFE1690D9888476D1C3FF46AAFD8E059
:101430000D9923466A466FF0010005F006FDC5E0F0
:1014400045F0400023464FF000026060A80736D404
:101450003EE0E8077FF447AF2068011D2160006887
:10146000290501D506701BE7290701D5068017E776
:10147000A90703D5F117C0E9006111E706600FE77E
:1014800045F0400023464FF008026060A80716D4DC
:101490001EE040F60E0125EA0100606016E045F00E
:1014A000400023464FF00A026060A80707D40FE00F
:1014B00045F040006060A80708D5234610220D992A
:1014C0006FF00100AFF3008080E007E010222346B8
:1014D0000D996FF00100AFF3008077E04FF0000945
:1014E00063284F46C8464B46CB4602D05B2806D001
:1014F00038E0E80601D40120A060012732E06269EB
:10150000D4F80CB00B98012190475E2807D14FF01A
:10151000010949466269D4F80CB00B9890472169DB
:1015200039B900210A4603AB43F82120491C082998
:10153000FADBD8B3216949B308F1010862690B9855
:10154000012190475D28F4D1B9F1000F09D00020A6
:1015500003A951F82020D24341F82020401C08283C
:10156000F7DB03AB2069002820794FEA40701ED0DA
:101570005B462246CDF80080CDE901970D99002801
:101580006FF0010020DAAFF300801FE0C11703AA5B
:1015900000EBD1614B1121F01F0102EB8302411AD4
:1015A00013680120884003431360C7E719E00D99D1
:1015B000224600286FF00100009702DAAFF30080A6
:1015C00004E0AFF3008001E0AFF3008000280ADA06
:1015D000401C06D10C9820B14FF0FF300FB0BDE891
:1015E000F08F5046FAE7E90701D10AF1010A0644F3
:1015F00000200C9054E60000CCCCCC0C2DE9F04738
:10160000814616468AB0334878440DC88DE80D00EF
:1016100030487844801C03AC0DC884E80D0041F6C6
:101620009B300844372190FBF1F290FBF1F5A5F1D6
:10163000800501FB12041B3C02D56442012000E03E
:101640000020DFF890A080460027FA44AAF1BE0AE5
:101650000DE0E00709D03246684607EB47010AEB88
:10166000810100F0D4FD8DE8070064107F1C002C80
:10167000EFD1184F7F44AC3F18E0E80714D007EBD8
:1016800004100DF1180A90E80E008AE80E00C068F8
:10169000F04201D198190890324606A903A800F03B
:1016A000B6FD03AB83E807006D10641C002DE4D188
:1016B00032466946B8F1000F03A802D000F07FFD62
:1016C00001E000F0A4FDC9E90001C9F808200AB052
:1016D000BDE8F0875C610000007B00F0800070478F
:1016E00000487047A40700207546FFF7F9FFAE4693
:1016F00005006946534620F00700854618B020B51E
:10170000FEF7FEFDBDE820404FF000064FF0000759
:101710004FF000084FF0000B21F00701AC46ACE899
:10172000C009ACE8C009ACE8C009ACE8C0098D4606
:101730007047000010B5FFF711FD001D10BD00BF80
:101740009150000010B5FFF70DFD006810BD10B5F9
:101750000446FFF707FD046010BD00002DE9FF4FB0
:101760001F464FF03C0987B04FF00042DDE91410EE
:1017700001F10108DDF858A002EA40500390002072
:1017800004908346054604460590B969461E0898AC
:101790008847AAF1010A0290BAF1000F37DD0298DA
:1017A0002E2815D0102100F058FA00282ADB4FF01F
:1017B000010B0499014316D0B9F1000F0BDB4A4627
:1017C000C11700F037FA05430C43A9F1040905E0FD
:1017D0000120059007E008B145F0010501200490C3
:1017E000059800B9361DB969089808F101088847BD
:1017F000BBF1000FAAF1010A0290CDD00999C1F8FE
:101800000080C9E70298702808D0502806D0F969EE
:1018100008988847BBF1000F14D04FE000200290D9
:101820000120BBF1000F049009D0B969089808F1B4
:1018300001088847AAF10109B9F1000F07DCF9692D
:10184000089888476FF001000BB0BDE8F08F2B2897
:1018500004D02D280CD14FF0FF300490B9690898BE
:1018600008F101088847A9F10109B9F1000FE6DD87
:10187000411CE4D00A2100F0F0F90028DFDB0299D6
:1018800008F1010801EB810100EB41000290B96908
:10189000089888470A2100F0E0F9099AA9F101099E
:1018A000B9F1000FC2F8008001DD0028E7DAF9691C
:1018B000089888470499029800FB016655EA0400DD
:1018C00004D004F04041090002D006E0039898E0FB
:1018D000A40044EA9574AD00B61E04F0004108006F
:1018E00002D16D196441761E159810F0240F03D0B3
:1018F0004FF00B095C4803E04FF028096FF07D00C2
:101900008246564507DAAAEB06018944B9F1410F30
:1019100001DD4FF0410901200021A9F1010200F091
:1019200089F9024628400B462140084301D0012195
:1019300000E00021501E029143F1FF312840214078
:10194000084301D0012000E000200299834651EABB
:101950000B014FD0002108464FF00000039900F41E
:10196000400039B100EB80004FF4400100EBD07033
:1019700001EA60008015012802DD4FF0FF3000E031
:1019800013D0401C36D0029860B3BBF1000F0CD1CD
:101990004A460120002100F04DF92840214008432B
:1019A00001D0012000E00020E0B101204A460021E2
:1019B00000F040F9034640190A4661412D1A8C4156
:1019C00011D3B9F1400F09DD159810F0240F02D0A2
:1019D000AAF1340603E0AAF1170600E0761C002500
:1019E0004FF0004406E05B1E42F1FF3220EA03059F
:1019F00021EA0204CAF10100B04206DA1B49039849
:101A000008430190002000900EE0039AC4F3D32114
:101A1000E80A0A43164940EA44500A433146CDE9F0
:101A20000002684604F090FD159810F0240F0BD0CA
:101A30001598C00715D13868DDE90012031D3B6019
:101A40000068C0E900120CE002A8694604F020FD1D
:101A50001598C00705D13868029A011D39600068E1
:101A600002604046F0E6000002FCFFFF0000F07F4D
:101A70000000F03F2DE9FF4F92461D4685B04FF024
:101A80000041DDE9124BDDE914727F1E01EA4B5083
:101A9000414940F0FF4940EA0108002122F02000BE
:101AA0004928049102D04E2828D04CE03BA00126C2
:101AB00007C88DE80700A9690698641C88477F1E3F
:101AC000014606D41DF8060018B121F0200181421C
:101AD0000BD0E96906988847032E34D0082E32D0FF
:101AE0006FF0010009B0BDE8F08F761C032E01D025
:101AF000082EE0D1601CCAF80000DCE7A96906984E
:101B0000641C88477F1E2AD420F02000412826D15B
:101B1000A9690698641C88477F1E20D420F0200005
:101B20004E281CD1A9690698641C88477F1E48F47A
:101B3000002849F48009CAF8004001D4282806D0BA
:101B4000E969069888475FEACB7012D022E0A9695C
:101B50000698641C88477F1E01D4002803DAE969CF
:101B600006988847BCE72928F1D1641CCAF80040D0
:101B7000E9E71BF0240F07D028680499031D2B60A8
:101B80000068C0E9001805E02868021D2A600068A6
:101B9000C0F800902046A5E70000F07F494E464976
:101BA0004E495459000000000446AFF3008020461F
:101BB000FEF791FB4FF0013C50F8042B51F8043B29
:101BC0009A4221D1A2EB0C03934313EACC1317D111
:101BD00050F8042B51F8043B9A4215D1A2EB0C03A8
:101BE000934313EACC130BD150F8042B51F8043B68
:101BF0009A4209D1A2EB0C03934313EACC13DBD036
:101C00004FF00000704700BFD01A01BAB1FA81F15D
:101C100001F0180122FA01F0CB40C1F12001DBB242
:101C2000C0B2C01A2CFA01F3D11A914311EAC311C0
:101C3000E6D17047B2F120030AD5C2F1200301FAC0
:101C400002F120FA03F300FA02F041EA03017047BF
:101C500000FA03F14FF0000070473A2800D2303804
:101C600020F02002412A01D3A2F13700884201D39B
:101C70004FF0FF307047000001491820ABBEFEE76F
:101C80002600020070475FEA400C08BF91F0000F89
:101C90004FEA8C234FEAC12243EA51514FEA1C50CC
:101CA00018BF00F5F0404FEA300018BF41F0004186
:101CB0005FEA6C5C00F02980BCF1FF3F08BF40F098
:101CC00080407047130C06BF12044FF0100C4FF009
:101CD000000C130E04BF12020CF1080C130F04BF0A
:101CE00012010CF1040C930F04BF92000CF1020CD2
:101CF000D30F04BF52000CF1010C11464FF000024B
:101D0000A0F11F00A0EB0C00704711F0004F08BFBE
:101D1000704731F000413FF4D5AF0B0C06BF09040A
:101D20004FF0100C4FF0000C0B0E04BF09020CF129
:101D3000080C0B0F04BF09010CF1040C8B0F04BF3E
:101D400089000CF1020CCB0F04BF49000CF1010C0F
:101D5000CCF12003A0EB0C0022FA03F302FA0CF200
:101D600041EA030100F10100704720F07F4C80EA56
:101D7000030023F07F47ACEB070303F57C5300F02F
:101D8000004003F1FF032DE980494FEA154B09B4E8
:101D90004FEA144325EA0B4E24EA03480FF20426C7
:101DA00006EB132749083E785FEA320203FB066719
:101DB000C7F5000707FB06F64FEA54374FEAD64649
:101DC00006F1020607FB066CCCF1005C4FEA1C47EB
:101DD0002CEA074C07FB06F40CFB06F504EB154652
:101DE0004FEA961634BF00204FF000404FEAD1373B
:101DF00006FB07FC4FEA1C4C0CFB0BF7D21B03FB4A
:101E00000CF761EB07010CFB0EF7B0EB074072EB30
:101E100017420CFB08F734BFA2EB0742B2EB0742B4
:101E200061EB17414FEA0C444FEA910706FB07FCB0
:101E30004FEA1C4C0CFB0BF7B0EBC74072EB573270
:101E400003FB0CF734BFA2EBC742B2EBC74261EB16
:101E500057310CFB0EF7B0EBC70072EB57720CFB5F
:101E600008F734BFA2EBC702B2EBC70261EB5771B0
:101E7000039F4FEA816141EA921104EBCC044FEADF
:101E8000D1374FEA826206FB07FC42EA90124FEA22
:101E900080604FEA1C4C0CFB0BF7D21B03FB0CF7CA
:101EA00061EB07010CFB0EF7B0EB074072EB17423A
:101EB0000CFB08F734BFA2EB0742B2EB074261EB21
:101EC00017414FEA8C554FEA910704EB9C2406FB1F
:101ED00007FC4FEA1C4C0CFB0BF7B0EBC74072EB56
:101EE000573203FB0CF734BFA2EBC742B2EBC74239
:101EF00061EB57310CFB0EF7B0EBC70072EB57727A
:101F00000CFB08F734BFA2EBC702B2EBC70261EBD0
:101F1000577115EB4C254FEA816141EA92114FEA66
:101F200082624FEAD13742EA901206FB07FC44F185
:101F300000044FEA80604FEA1C4C0CFB0BF7D21BED
:101F400003FB0CF761EB07010CFB0EF7B0EB07404E
:101F500072EB17420CFB08F734BFA2EB0742B2EB5F
:101F6000074261EB174115EB1C154FEA813141EA3D
:101F700092414FEA823242EA90424FEA80304FEA81
:101F80000C7644F1000448EA03434EEA0B484FF054
:101F9000000EB2EB080C71EB030724BF6246394612
:101FA0004EEB0E0E4FF0000B0018524149414BEB27
:101FB0000B0BB2EB080C71EB03077BF1000B24BF9A
:101FC000624639464EEB0E0E4FF0000B00185241A0
:101FD00049414BEB0B0BB2EB080C71EB03077BF1A8
:101FE000000B24BF624639464EEB0E0E51EA020743
:101FF00018BF46F0010616EB0E7655F1000254F1BB
:10200000000103D5BDE88901BDE80088BDE889016C
:10201000BDE80048B619524141EB0101A3F10103AB
:10202000704780807F7E7D7C7B7A79787776767545
:102030007473727171706F6E6E6D6C6C6B6A6A69BD
:102040006868676666656464636362616160605F57
:102050005F5E5E5D5D5C5C5B5B5A5A5959585857D0
:102060005756565555555454535352525251515038
:1020700050504F4F4F4E4E4D4D4D4C4C4C4B4B4B8B
:102080004A4A4A49494948484847474747464646D1
:10209000454545444444444343434342424242410C
:1020A0004141000046EA0646A3F570534FEA164642
:1020B00046EA42564FEAD22242EA415210B54FEA6E
:1020C000D121A3F1010300F017F820F0004000F146
:1020D000010C00F0004701EB00501146BCF5006F09
:1020E00040EA070000D210BD02484FF0000140EA6C
:1020F000070010BD0000F07F002B26D4770021D010
:102100001CB54FEA370703B44FF010004FF0100131
:102110004FF000000FBCBDE810400BF1010BBBF10C
:10212000010F08BF5FEA170722BF12F1010211F188
:1021300001014FF0004143F1000300F0004043EA89
:1021400000007047F9D35708DAE746EA064613F16C
:10215000400F4FEA16461FDD13F1200FDFBF164375
:102160000A46002120335B42C8D0C3F1200746EA6B
:10217000064602FA07F74FEA164646EA0706C3F193
:10218000200722FA03F201FA07F721FA03F14FF0D0
:10219000000342EA0702B1E746EA020646EA0646BB
:1021A0004FEA164646EA0106BCBF46EA0646360C2A
:1021B0004FF000034FF000024FF000019EE72DE9C1
:1021C000C048934630B491E8380007C831EA400C63
:1021D00048BF34EA430C03D5FFF7C7FDFFF78CFF78
:1021E000F0BCBDE800882DE9C048934630B491E8C2
:1021F000380007C831EA400C48BF34EA430C03D525
:10220000FFF7B3FDFFF74EFFF0BCBDE800882DE9F6
:10221000C048934630B491E8380007C810F0804FAA
:1022200008BF13F0804F03D100F019F8FFF764FFE7
:10223000F0BCBDE800882DE9C048934630B491E871
:10224000380007C810F0804F08BF13F0804F03D14B
:1022500000F005F8FFF726FFF0BCBDE8008820F08D
:102260007F4780EA030023F07F4C07EB0C03A3F5C4
:102270007C5300F00040A3F1FE0392F0000F00F049
:10228000B38095F0000F00F077802DE901494FEA07
:1022900011404FEA144621EA004800FB06FC24EAFC
:1022A000064708FB06F607FB08F800FB07F718EBE4
:1022B00006484CEB164C4FEA124B18EB07484FEA16
:1022C00015464CEB174022EA0B4E0BFB06FC25EAA9
:1022D00006470EFB06F607FB0EFE0BFB07F71EEB91
:1022E000064E4CEB164C4FF000061EEB074E4CEB27
:1022F000174B18EB0B0840F1000018EB0E0B58EBD6
:10230000000840F100008F1A4FF000013CBFC943A4
:10231000661B14BFB5EB040C00213CBFC943F61B80
:102320004FEA17444EEA8E0E27EA04454FEA1C474F
:1023300004FB07622CEA074C05FB07F70CFB05F6CC
:1023400004FB0CFC16EB074642EB174216EB0C465F
:1023500042EB1C421BEB060658EB0202414146EAE7
:102360009E0601D5BDE80189B619524141EB010134
:10237000A3F10103BDE801894FEA14454FEA114773
:1023800024EA054621EA074C05FB07F406FB07F79C
:102390000CFB06F105FB0CFC11EB074144EB174469
:1023A0004FEA124711EB0C4144EB1C4422EA074C64
:1023B00005FB07F206FB07F70CFB06F605FB0CFC1A
:1023C00016EB074642EB174216EB0C4642EB1C4558
:1023D0006A1854F1000148BF7047B619524141EBE9
:1023E0000101A3F10103704795F0000F37D04FEAC8
:1023F00011424FEA144721EA024624EA074C02FB45
:1024000007F106FB07F70CFB06F402FB0CFC14EBD0
:10241000074441EB17414FEA154714EB0C4441EBDD
:102420001C4125EA074C02FB07F506FB07F70CFBEE
:1024300006F602FB0CFC16EB074645EB174516EBC0
:102440000C4645EB1C42121951F1000148BF704780
:10245000B619524141EB0101A3F1010370474FEA64
:1024600014454FEA114724EA054621EA074C05FBCB
:1024700007F106FB07F70CFB06F24FF0000605FB21
:102480000CFC12EB074241EB174112EB0C4251EBF3
:102490001C4148BF7047921841EB0101A3F10103B1
:1024A0007047000010B50A4C00221021204601F0B0
:1024B00094FC00222021204601F08FFC4FF40450B0
:1024C00000F058F8BDE8104042F2380000F052B871
:1024D0000008004870B5104C054601221146204600
:1024E00001F07BFC01220221204601F076FC012252
:1024F0000821204601F071FC01220821204601F04C
:102500006CFC00220821204601F067FC2846BDE84B
:10251000704000F02FB800000008004810B50446D5
:10252000084604F031FA9FED111B53EC112B04F017
:102530007BFA04F0E5F9810B7CB120F4804021F4B2
:10254000804140F4004041F4004400BF00F012F824
:102550002046BDE8104000F00DB820F4004021F402
:10256000004140F4804041F48044EFE7F8BA40D89D
:1025700013A20C4070B5184D06460024012202211A
:10258000284601F02AFC00220121284601F025FC02
:10259000300401D5012200E000220421284601F088
:1025A0001CFC00220221284601F017FC76000122C3
:1025B0000221284601F011FC641CE4B2102CE7D380
:1025C00001220421284601F008FC2846BDE870409D
:1025D0000122114601F001BC0008004810B5846AD0
:1025E000E16D11F0500F06D0E16DC90625D52046EA
:1025F00000F019FF10BDE06D40F40070E065206848
:102600000168090716D502F095FE78B12068C06808
:10261000800400280ADBE06D20F48070E065E06D46
:10262000C00403D4E06D40F00100E065204600F0F6
:10263000EBFE10BDC0688007EBE7616D496BBDE83C
:102640001040084710B5806AC16D41F04001C16576
:10265000016E41F00401016600F0E5FE10BD10B509
:10266000806A00F0DFFE10BD70B504460068816826
:1026700011F0010F2DD18168174A11421AD18168DA
:10268000D5432940491C816001F0ACFB06461BE0A4
:10269000816811F0010F03D181682940491C8160D4
:1026A00001F0A0FB801B02280ED920680068C043FF
:1026B000C00709D0E06D40F01000E065206E40F0EA
:1026C00001002066012070BD20680168C943C90768
:1026D000DED1002070BD00003F00008003490020D3
:1026E000052208700249034801F010B801000020DB
:1026F000780400206C02002010B54FF47A2000F01E
:102700005FFBBDE81040014802F0FCB9380300202F
:1027100038B50024009400F0C9F98DF80340582022
:102720008DF802008DF8014005208DF80000694603
:10273000042003F081FD8DF80340EC208DF80200A9
:1027400080258DF801503C208DF80000694604205A
:1027500003F072FD8DF803408DF8024004208DF8DF
:102760000100B3208DF800006946042003F064FDE9
:102770008DF8034001208DF802000E208DF8010035
:1027800042208DF800006946042003F055FD8DF8C5
:1027900003408DF802408DF8015029208DF800008B
:1027A0006946042003F048FD8DF803402C208DF885
:1027B00002008DF8015018208DF8000069460420B1
:1027C00003F03AFD38BD00002DE9F04710EE100A85
:1027D0004E4A01252DED048B002690424C4902DA29
:1027E0009FED4C0A05E010EE100A884201DD9FEDD6
:1027F0004A0AF2EE040A4FF47A7420EE200A002707
:10280000BCEEC00AB8EE400A80EE208ABCEEC80AD0
:1028100010EE100A1FFA80F89FED409B08FB05F0B0
:1028200004F09BF88A464AEC100B814653EC192BB6
:1028300051EC100B04F0F6F90AD84AEC109B9FED0E
:10284000391B51EC100B53EC112B04F0B1F809D9E2
:10285000761C7F1C4FF6FF70BFB2B6B200EA45058A
:102860000A2FDBD300EE105AB3EE091A0521B8EE99
:10287000400A68EE000A80EE810AFCEEC00A10EE03
:10288000900ADFED2A0A82B220EE200ABCEEC00ACE
:1028900010EE100AB0FBF4F304FB130004E000BFD9
:1028A000B0FBF1F0B4FBF1F4B0FBF1F301FB130367
:1028B00043B9B4FBF1F301FB1343002BF0D001E06B
:1028C0004008640840EA0401C907F9D00721B6FBB3
:1028D000F1F3D20301FB136102EBC00548F20100E2
:1028E00000EBC406124800EB0154124803F091FCBF
:1028F000304603F08EFC284603F08BFCBDEC048BC5
:102900002046BDE8F04703F084BC000000000C4204
:102910000080894500000C4200808945CDCCCCCC9C
:10292000CC2FA1409A9999991930B14000007A446E
:1029300024808C001C80EC002DE9F05F824610EEB4
:10294000100A4F4A01262DED048B002590424D4977
:1029500002DA9FED4D0A05E010EE100A884201DD13
:102960009FED4A0AF2EE040A4FF47A7420EE200A30
:102970000027BCEEC00AB8EE400A80EE208ABCEE0A
:10298000C80A10EE100A1FFA80F89FED419B00BFA5
:1029900008FB06F003F0E1FF8B464BEC100B814681
:1029A00053EC192B51EC100B04F03CF90AD84BEC0A
:1029B000109B9FED391B51EC100B53EC112B03F0C6
:1029C000F7FF09D96D1C7F1C4FF6FF70BFB2ADB287
:1029D00000EA46060A2FDBD300EE106AB3EE091AAE
:1029E0000521B8EE400A68EE000A80EE810AFCEE8E
:1029F000C00A10EE900ADFED2A0A82B220EE200A09
:102A0000BCEEC00A10EE100AB0FBF4F304FB130096
:102A100004E000BFB0FBF1F0B4FBF1F4B0FBF1F364
:102A200001FB130343B9B4FBF1F301FB1343002B88
:102A3000F0D001E04008640840EA0401C907F9D079
:102A40000721B5FBF1F301FB1351D20302EBC005E3
:102A500048F2010000EBC4060AEB0150114944188A
:102A6000114803F0D6FB304603F0D3FB284603F0B1
:102A7000D0FBBDEC048B2046BDE8F05F03F0C9BB82
:102A800000000C420080894500000C42008089450E
:102A9000CDCCCCCCCC2FA1409A9999991930B1408A
:102AA00000007A4424808C001C80EC0010B586B0B5
:102AB00014216846FDF709FE1648C16C41F0020179
:102AC000C164C06C144C00F0020001220590510357
:102AD000204601F082F901229103204601F07DF9A0
:102AE0000122D103204601F078F90122022120467B
:102AF00001F073F94EF202000090112001900120C4
:102B00000290022003906946204601F03DF806B08D
:102B100010BD00000010024000040048FEE7000065
:102B2000014800F0FABE0000D80200200D490268FA
:102B30008A4201D20C4901E00B492031D2B2142360
:102B4000083AB2FBF3F2436C02F01F0223F00303D6
:102B50001944816404498031C164012191400165B7
:102B60007047000008040240000802400179074A4B
:102B700002EB81024265054A4432491E826501F03A
:102B80001F0201219140C16570470000FC0802400E
:102B900030B5D0E913456560446D14B1D0E91645F0
:102BA000656090F8444004F01F050124AC40056CBA
:102BB0006C60046863608368102B036803D09960BD
:102BC0000068C26030BD9A600068C16030BD00001E
:102BD0002DE9FC470021584A0F46084632F81030CC
:102BE000401C194480B289B20528F7D30520B1FBF7
:102BF000F0F0BE2800D2002050494F4E504D0A88B8
:102C00000A3626F812002B88984201D928806A805B
:102C1000521C90B24B4ADFF83091088092ED000AC6
:102C2000D9ED000A494A30EE600A92ED001AC0EE72
:102C3000010A00EE100AB8EE400AF4EEC00AF1EE06
:102C400010FA76D84FF0000AA6F800A0544688463D
:102C50003DE000BF36F81400298800EE100A9FED11
:102C60003C1AF8EE400A00EE101AB8EE400A20EEC8
:102C7000010AF4EEC00AF1EE10FA01DD7F1CBFB2CA
:102C800000EE100ADFED330A06EB4400F8EE401ABE
:102C90009FED310A40886100B0EE401A8B1C01EEB6
:102CA000E01ABDEEC11A11EE102A01EE100A4FF41F
:102CB0007840B8EE411A01EE600ABDEEC00A8DED13
:102CC000000A019025A0FDF7A5FB641CA4B2B8F88A
:102CD00000008442BED3688836F8100003F054FE2A
:102CE00041EC100B02220421002002F0D1FD688883
:102CF00099ED000A00EE900A9FED1E1AF8EE600AA8
:102D000000EE810ADFED1C0A30EE600A10EE100AB8
:102D100003F0BEFF41EC100B18A053EC102BFDF795
:102D200079FB791E1CA0FDF775FBA5F800A0A5F89E
:102D300002A0BDE8FC87000078040020020000200B
:102D400068020020100000200C0000201400002069
:102D50000AD7A33C810C483D008087436C696E65AF
:102D60002025642C25642C25642C25642C2564FFE7
:102D7000FFFF0000CDCCCC3DCDCC2C417061676510
:102D8000322E74332E7478743D22252E3166204DF8
:102D9000487A22FFFFFF000070616765322E7434AD
:102DA0002E7478743D222564B8F622FFFFFF0000E0
:102DB00070474FF4005000F0DBBE72B6FEE7000033
:102DC00030B587B000241F4A009401940294039404
:102DD000049405940121069412680B0401E0491C37
:102DE00089B2B2FBF0F5B5FBF1F59D42F7D2B2FB2B
:102DF000F0F0B0FBF1F21548134B491E0360C0E937
:102E000001148021521E8161C0E9032401F034FEC7
:102E100008B1FFF7D2FF4FF48050009069460B488D
:102E200001F0B0FE08B1FFF7C8FF2020049004A90C
:102E30000694064801F0C4FD002801D0FFF7BDFF4D
:102E400007B030BD2C0000200004004038030020F3
:102E50002DE9F04F044690F858009BB00F464FF014
:102E6000000B012812D0012084F858000026179684
:102E7000189620684FF0A048DFF81891DFF818A1E5
:102E8000464D404506D12846009508E002201BB07B
:102E9000BDE8F08F484515D15046CDF800A002F0AE
:102EA00045FA0090206802F041FA0099084311D0D9
:102EB000E06D40F02000E0654FF0010B84F85860B1
:102EC0005846E4E7E06D40F02000E06584F8586083
:102ED0000120DCE720684146884201D0A84201D1A8
:102EE0002F4800E02F48D7F800C02F4B40F61F7244
:102EF000BCF1000F2DD0D0F808C094F838802CF425
:102F0000604C4CEA483CD7F804804CEA080CC0F806
:102F100008C0D4F800C08C4501D0AC4504D1896804
:102F2000AB6801F0010109E0D9F80810DAF808509F
:102F300001F0010105F001059B68294303F001033D
:102F40001943BBD1BB68396819438368934319435C
:102F50001DE0876827F46047876027688F4201D0AB
:102F6000AF4204D18968AB6801F0010109E0D9F8EA
:102F70000810DAF8085001F0010105F001059B681E
:102F8000294303F00103194398D18168914381607B
:102F900094E70000000400500005005000010050BC
:102FA0000003005000070050000600502DE9F84FC4
:102FB00000270446009790F85800DFF810840D466B
:102FC000B946012811D0012684F85860206802F023
:102FD000A9F960B1E06D40F02000E0655FF0010705
:102FE00084F858903846BDE8F88F0220FBE7D5E911
:102FF00000210C23206803EA91131844036B01F0AD
:103000001F014FF01F0C0CFA01FCC2F3846223EA8B
:103010000C038A4013430363206802F083F982465D
:10302000206802F07BF95AEA00003CD1AA682968BE
:103030002068B2F1004F37D002F084F9206841696E
:1030400021F00041416120686969C268C2F3C10290
:10305000520091402A69042A31D000EB82002B688B
:10306000026EDFF86CC303F0F84302EA0C020B4374
:103070001A4342F00041016622682869A96902EBFF
:103080008000026E22F080720A430266297F206867
:103090002A69012910D0002100EB8200026E22F083
:1030A00000720A4302667DE0002202F04BF92068BC
:1030B000416941F00041C5E74FF00071ECE70021A4
:1030C00002F026F9400320684FF0000172D002F0B0
:1030D0001FF990FAA0F0B0FA80F1286842036ED090
:1030E00090FAA0F0B0FA80F0814204D1002211469B
:1030F000206802F036F90121206802F009F9400346
:1031000020684FF001015DD002F002F990FAA0F0C2
:10311000B0FA80F12868420359D090FAA0F0B0FAD2
:1031200080F0814204D100220121206802F019F9C7
:103130000221206802F0ECF8400320684FF0020101
:1031400048D002F0E5F890FAA0F0B0FA80F12868D3
:10315000420344D090FAA0F0B0FA80F0814204D14A
:1031600000220221206802F0FCF80321206802F00E
:10317000CFF8400320684FF0030133D002F0C8F8C5
:1031800090FAA0F0B0FA80F1286842032FD090FAAC
:10319000A0F0B0FA80F0814204D10022032120681F
:1031A00002F0DFF82068816811F0010F22D0A7E05B
:1031B00000E004E002F0ACF8C0F384618DE7C0F3F6
:1031C000846091E702F0A4F8C0F38461A2E7C0F341
:1031D0008460A6E702F09CF8C0F38461B7E7C0F30F
:1031E0008460BBE702F094F8C0F38461CCE7C0F3DD
:1031F0008460D0E7EB682968434550F8B03FC1F3DD
:10320000120101D10B4300E08B430360E8684045A5
:1032100076D1286841031BD090FAA0F1B1FA81F170
:10322000491C01F01F0109294FEA403131D800291A
:1032300011D090FAA0F1B1FA81F100BF01F10101C2
:1032400001F01F0106FA01F608D1C0F3846109E01C
:10325000C0F38461E4E7C0F38461EFE790FAA0F182
:10326000B1FA81F101F1010101F01F0146EA81612A
:1032700002D1C0F3846003E090FAA0F0B0FA80F0CD
:1032800000F1010000F01F0000EB400041EA005196
:1032900032E000290ED090FAA0F1B1FA81F100BF1E
:1032A00001F1010101F01F0106FA01F605D1C0F399
:1032B000846106E0C0F38461F2E790FAA0F1B1FA0C
:1032C00081F101F1010101F01F0146EA816102D1A2
:1032D000C0F3846003E090FAA0F0B0FA80F000F14F
:1032E000010000F01F003B4A00EB400002EB0050E1
:1032F00041EA000141F00071AA68206802F022F85A
:1033000035482B6803423FF46BAE22684FF0A04C67
:103310003248334E334D624501D0AA4201D10146B5
:1033200000E031468968DFF8C08001F0E071434574
:1033300003D0DFF8B880434521D15FEA01281ED4CD
:10334000624506D02A4B9A427FF44AAEAA4200D088
:10335000304641F40001826822F0E0720A43826044
:10336000244825490068B0FBF1F0401C00EB400008
:10337000800000E0401E00900028FBD130E6DFF81E
:103380007C8043450FD15FEAC1180CD4AA4202D118
:103390001B4B9A42F2D0624502D0AA4200D030467E
:1033A00041F080710CE0DFF85C804345E6D14B02D0
:1033B000E4D4AA42E2D0624500D0304641F4800114
:1033C000826822F0E0720A43826009E600007F40D2
:1033D00000F0FF03000020FE000008800003005002
:1033E0000007005000010050000021C31000C090F1
:1033F000000600502C000020400D0300000052C7C2
:1034000000050050000084CB044910B5884204D167
:10341000FFF7DEFB02490120487010BD6C0200205E
:103420000000002070477047F8B54FF00005040019
:103430002E46009502D0E06D10B107E00120F8BDE6
:10344000204600F00DF9266684F8586020688168EF
:10345000C1F3407119B18168754A114081602068DB
:103460008168C1F3007189B98168724A114041F0E5
:1034700080518160704871490068B0FBF1F04000F4
:10348000801C00E0401E00900028FBD1206881686D
:10349000C1F3007141B9E16D41F01001E165216EA8
:1034A00041F001012166012501F03CFFE16D01F0D1
:1034B00010010143E06D05D040F01000E0650125EA
:1034C0002846F8BD20F4807040F00200E0652068D6
:1034D000816811F0010F27D14FF0A043584A98425C
:1034E00001D0904204D19968966801F001010AE088
:1034F00054498968544E01F00101B66806F001068E
:103500003143524EB66806F0010631430CD1984261
:1035100001D0904201D14E4800E04E486168826877
:1035200022F47C120A438260E168E06B627F084308
:10353000A16841EA4231084394F8241040EA01406E
:10354000012904D1218D444A02EB41410843E16A3B
:1035500029B101F47871226B014342EA010021682C
:10356000CA683E4B1A400243CA6020680169626B18
:1035700021F0406111430161206801F0D3FE06464D
:10358000206801F0CBFE30432ED1207F94F8381014
:103590002268800340EA4101D06844F20203984364
:1035A0000843D06020690028206801690AD041F4EE
:1035B00080310161206850F8C01F22696FF30D014E
:1035C000114307E021F480310161206850F8C01FE9
:1035D0006FF30D01016094F8400001280CD02068C1
:1035E000016921F001010161606901282068016B16
:1035F00021F00F0111D013E0D4E911010843D4E9FF
:1036000013121143084321680A6940F2FC739A437C
:10361000104340F001000861E6E7226A521E1143A0
:103620000163E06D20F0020040F00100E06547E733
:10363000C0FFFF5FC0FFFF7F2C000020400D030094
:10364000000100500004005000050050000600502A
:1036500000030050000700500000FEFF0740F0FF8D
:1036600070B59CB00546142115A8FDF72EF854211D
:103670006846FDF72AF82868B0F1A04F3ED14FF414
:103680000040009080031190684600F0A9FC08B14A
:10369000FFF793FB1A49C86C40F40050C864C86C2B
:1036A00000F400501A90C86C40F00100C864C86C67
:1036B000002600F001001A90012015900320CDE9AA
:1036C000160615A94FF0904000F05EFA0E4C0D481A
:1036D00020600520C4E901068020C4E903604000A1
:1036E00060618000A0612020C4E90706204600F048
:1036F00071F908B1FFF761FB6C65A5621CB070BD84
:103700000010024008000240D80200202DE9F047D6
:10371000044600684FF0A0483D4F91468A46404518
:1037200001D0B84201D13B4900E03B49896801F032
:103730001F0501F0F7FD002868D194F85800012812
:1037400064D0012084F8580034492068884201D1AF
:10375000012000E00020401E28424FF0000605D066
:10376000052D03D0092D01D0012003E02046FEF7EE
:103770007BFF18B184F85860BDE8F087E06D40F633
:103780000161884340F48070E0652068B84201D14F
:10379000414605E02249884201D1224900E0014624
:1037A000814200D01DB9E06D20F48010E065E06D2D
:1037B000C00404D5206E20F00600206600E02666D6
:1037C000616D1948C862616D18480863616D1848D9
:1037D000486321681C20086084F8586020684168AC
:1037E00041F0100141602068C16841F00101C160F1
:1037F00021684B4652464031606D00F04BF921681C
:103800008A680C4B1A40121D8A60B5E70220B3E7A4
:103810000001005000030050000700500006005057
:103820000005005000040050DD2500085F26000858
:1038300045260008C0FFFF7F10B590F82530002115
:103840000122022B03D00421C163012122E003687D
:103850001C6824F00E041C60836C1C6824F48074C3
:103860001C6003681C6824F001041C6090F844305C
:10387000046C03F01F0302FA03F36360D0E913340E
:103880005C60436D33B11C6824F480741C60D0E923
:1038900016345C6080F82520002280F82420084639
:1038A00010BD70B590F82520002401212346022A7E
:1038B00007D00422C26380F8251080F82430012448
:1038C00029E00268156825F00E0515600268156884
:1038D00025F001051560826C156825F4807515606A
:1038E00090F84420056C02F01F0201FA02F26A60AF
:1038F000D0E913255560426D32B1156825F4807505
:103900001560D0E91625556080F8251080F8243020
:10391000816B01B18847204670BDF0B4016C0C6822
:1039200001680D6890F8442002F01F06042202FA94
:1039300006F3234211D06B070FD50B689B0603D407
:103940000B6823F004030B6090F8441001F01F0192
:103950008A40016C4A60016B1DE0022303FA06F7FE
:1039600027424FF0000C4FF0010218D0AF0716D5D8
:103970000C68A40605D40C6824F00A040C6080F8D6
:10398000252090F8441001F01F018B40016C4B6022
:1039900080F824C0C16A00291AD0F0BC0847082367
:1039A000B340234214D02B0712D50B6823F00E032B
:1039B0000B6090F84410036C01F01F0102FA01F152
:1039C0005960C26380F8252080F824C0416BE2E78B
:1039D000F0BC704770B504000CD02B4A216814204D
:1039E000914209D2294A0A44B2FBF0F08000606497
:1039F00027480AE0012070BD234A52420A44B2FB24
:103A0000F0F080006064204808382064022084F8C8
:103A100025000A6847F6F0708243D4E90203184390
:103A2000D4E904352B431843A3691843E3691843C9
:103A3000236A1843104308602046FFF777F8A06810
:103A40000025B0F5804F00D16560A16C2079086039
:103A5000D4E9130141606068401E032808D820465D
:103A6000FFF784F8606D0560D4E91601416002E05B
:103A70006565A565E565E563012084F8250084F8A2
:103A80002450002070BD000008040240F8FFFDBF74
:103A90000000024070B5044690F82400002501287B
:103AA0000CD0012084F8240094F825600020012E19
:103AB00006D084F824000225284670BD022070BD7F
:103AC000022684F82560E0632068066826F0010677
:103AD00006602046FFF75CF8206B0028206801682C
:103AE00002D041F00E0106E021F0040101602068DF
:103AF000016841F00A010160A06C0168C90303D5A7
:103B0000016841F480710160606D18B1016841F491
:103B1000807101602068016841F001010160CBE71C
:103B200070B5124D0024A888042801D10020A88077
:103B30000204120C0BD0012A04D0022A04D0032A5A
:103B400005D103E0082402E0102400E0182400213D
:103B50000223084601F0B8FE204695ED020AFEF762
:103B6000EBFEA888401CA88070BD0000000000206B
:103B7000044910B50A68024202D00860FFF7D0FF7E
:103B800010BD0000140401402DE9F04FDFF8209231
:103B9000002301260324A9F1040B85B00F2709F1A6
:103BA000040AABF1040EFAE006FA03F52A407CD0D1
:103BB00091F804C00CF0030CBCF1010F02D0BCF171
:103BC000020F26D1D0F808C0CDF800C04FEA430C50
:103BD00004FA0CF8CDF810C0DDF800C02CEA080C8F
:103BE000CDF800C0D1F80C80DDF810C008FA0CF850
:103BF000DDF800C048EA0C08C0F80880D0F804C01E
:103C00002CEA050C0D79C5F300159D4045EA0C051D
:103C100045600D79ED43AD070ED0C5684FEA430806
:103C200004FA08FC25EA0C05D1F808C00CFA08FCD7
:103C30004CEA050CC0F80CC00D7905F00305022D07
:103C400016D1DD0800EB850CCDF808C0DCF820802B
:103C50005D074FEAD56C07FA0CF528EA05080D69EF
:103C600005FA0CF5DDF808C045EA0805CCF8205047
:103C700005684FEA430CCDF808C004FA0CFC25EAAD
:103C80000C0591F804C00CF00308DDF808C008FA30
:103C90000CF848EA0508C0F800804D6815F4403F6C
:103CA0007CD0444DD5F860C000E077E04CF0010CCA
:103CB000C5F860C02D6E23F0030C05F001050095DA
:103CC0003D4D65440295AD684FEA837C4FEA1C7810
:103CD00007FA08FC25EA0C05B0F1904F06D0DFF892
:103CE000DCC0604505D14FF0010C20E04FF0000C26
:103CF0001DE0DFF8CCC0604502D14FF0020C16E0A9
:103D0000DFF8C0C0604502D14FF0030C0FE0DFF8D0
:103D1000B8C0604502D14FF0040C08E0DFF8ACC039
:103D2000604502D14FF0050C01E04FF0060C0CFA93
:103D300008FC4CEA050C029DC5F808C0D9F80050F3
:103D4000CC46D1F8048095435FEAC82800D51543D6
:103D5000CCF80050DAF80050D446D1F804809543EE
:103D60005FEA882800D51543CCF80050DBF80050F6
:103D7000DC46D1F8048095435FEA883800D51543C6
:103D8000CCF80050DEF80050F446D1F8048095439A
:103D90005FEAC83800D51543CCF800505B1C0A68B0
:103DA00032FA03F57FF400AF05B0BDE8F08F0000F4
:103DB00008040140001002400000014000040048D7
:103DC00000080048000C004800100048001400489B
:103DD0000069084000D0012070470AB18161704736
:103DE0008162704701488068704700002000002011
:103DF00002488168426811448160704720000020B9
:103E000010B50024032000F073F8002000F008F83B
:103E100008B1012401E000F025F8204610BD0000A3
:103E200070B50E4E05460024706898B14FF47A7153
:103E3000B1FBF0F00A490968B1FBF0F000F0ACFD0D
:103E400040B9102D06D200222946501E00F030F84D
:103E5000356000E00124204670BD000020000020F5
:103E60002C0000200A4882B0016E41F00101016679
:103E7000016E01F001010091816D41F08051816579
:103E8000806D00F08050009002B000F0A1B80000FA
:103E900000100240002809DB00F01F0201219140C0
:103EA0004009800000F1E020C0F8001170470000D8
:103EB000F0B40E4B1B680C46C3F30223C3F1070595
:103EC000042D00D90425191D072901D2002300E083
:103ED000DB1E012606FA05F1491E214099409E404D
:103EE000761E16403143F0BC02F038BA0CED00E00B
:103EF000064900F0070208684FF6FF03184040EA41
:103F00000220034A10430860704700000CED00E0F7
:103F10000000FA052B492C4B0A6832214A432B49F1
:103F200040B1B0F5007F086829D020F4C06040F4AB
:103F300080602CE00868C0F34120022804D051F8CA
:103F4000800F20F4807022E0D1F8800020F480708F
:103F5000C1F88000086820F4C06040F40070086078
:103F6000B2FBF3F0401C00E0401E4A69520501D547
:103F70000028F9D1486940050AD503207047C0F3ED
:103F80004120022806D051F8800F40F4807008606C
:103F900000207047D1F8800040F48070C1F88000A4
:103FA000086820F4C06040F400700860B2FBF3F0D1
:103FB000401C00E0401E4A695205DBD50028F9D1BB
:103FC000D8E700002C00002040420F0000700040A5
:103FD0000248816841F48041816070470070004070
:103FE0002DE9F843044600680026BB4D00035ED56A
:103FF000A86D0027C00008D4A86D40F08050A865C7
:10400000A86D012700F080500090DFF8D092D9F819
:10401000001041F48071C9F80010FFF7E3FE8046FC
:1040200006E000BFFFF7DEFEA0EB080002282BD859
:10403000D9F80000C005F5D5D5F8900010F440700F
:1040400014D0216D814211D0D5F89000D5F8901090
:1040500020F4407041F48031C5F89010D5F89010EC
:1040600021F48031C5F89010C5F89000C00711D038
:10407000FFF7B8FE804641F2883907E0FFF7B2FE4D
:10408000A0EB0801494501D903260BE0D5F89000C3
:104090008007F3D5D5F89000216D20F440700843D7
:1040A000C5F890001FB1A86D20F08050A865207859
:1040B000C00707D0D5F88800616820F003000843E6
:1040C000C5F888002078800707D5D5F88800A16852
:1040D00020F00C000843C5F888002078400707D579
:1040E000D5F88800E16820F030000843C5F8880062
:1040F0002078000707D5D5F88800216920F0C00096
:104100000843C5F888002078C00607D5D5F8880090
:10411000616920F440700843C5F888002078800663
:1041200007D5D5F88800A16920F440600843C5F898
:1041300088002078400607D5D5F88800E16920F48A
:1041400040500843C5F888002078000607D5D5F808
:104150008800216A20F440400843C5F88800208880
:10416000C00507D5D5F88800616A20F440300843BF
:10417000C5F888002068800307D5D5F89C00A16A9F
:1041800020F003000843C5F89C002088800507D56F
:10419000D5F88800E16A20F440200843C5F888007B
:1041A000208840050FD5D5F88800216B20F44010F9
:1041B0000843C5F88800206BB0F5801F03D1E8687C
:1041C00040F48010E860208800050FD5D5F88800FD
:1041D000616B20F440000843C5F88800606BB0F5BF
:1041E000800F03D1E86840F48010E8602088C004A4
:1041F0000FD5D5F88800A16B20F040700843C5F8B2
:104200008800A06BB0F1807F03D1E86840F4801093
:10421000E86020884FF0006180040ED5D5F8880052
:10422000E26B20F040601043C5F88800E06B8842E4
:1042300003D1E86840F48010E860208840040ED57F
:10424000D5F88800226C20F040601043C5F8880043
:10425000206C884203D1E86840F48010E860208830
:1042600000040FD5D5F88800616C20F04050084359
:10427000C5F88800606CB0F1805F03D1E86840F455
:104280008030E8602068C0030FD5D5F88800A16CA5
:1042900020F040400843C5F88800A06CB0F1804F82
:1042A00003D1E86840F48030E860206840030FD50F
:1042B000D5F89C00E16C20F440100843C5F89C0040
:1042C000E06CB0F5001F03D1E86840F48010E860AE
:1042D0003046BDE8F8830000001002400070004046
:1042E0002DE9F0470E4605004FF0000725D0DFF816
:1042F000AC81D8F8000000F00F00B0420CD2D8F822
:10430000001021F00F013143C8F80010D8F8000068
:1043100000F00F00B04210D12968614CC80741F28B
:10432000883A5AD06868DFF87C91032808D00228C0
:1043300020682DD0400500282CDB0120BDE8F08747
:1043400020688001F9D5E06800F00302E068C0F35E
:104350000310401C032A19D0534A00BFB2FBF0F0EF
:10436000E268C2F306225043E268C2F34162521C83
:104370005200B0FBF2F0484517D9A06810F0F00FDA
:104380000CD0880711D5A86840B10EE0474AE5E790
:104390008003D0E700F0B6F8484506D9A06820F0C1
:1043A000F00040F08000A0608027A068696820F0DD
:1043B00003000843A060FFF715FD814606E000BF3B
:1043C000FFF710FDA0EB090151453AD8A0686968D4
:1043D00000F00C00B0EB810FF2D12868810714D5F2
:1043E000400703D5A06840F4E060A060287800078B
:1043F00005D5A06820F4605040F4E060A060A0689B
:10440000A96820F0F000084304E0802F03D1A068E1
:1044100020F0F000A060D8F80010404601F00F0135
:10442000B14216D9016821F00F0131430160FFF755
:10443000D9FC074607E000BFFFF7D4FCC11B51457C
:1044400001D903207AE7D8F8000000F00F00B0424D
:10445000F2D12878400705D5A068E96820F4E0602B
:104460000843A0602878000706D5A068296920F4D1
:10447000605040EAC100A06000F044F8A1680C4A16
:10448000C1F30311515C01F01F01C84009490860E4
:1044900009480068BDE8F047FFF7C2BC00200240B1
:1044A0000010024000B4C4040024F40000366E0181
:1044B000AE6E00082C0000202000002005480649B0
:1044C00000688968054AC1F30221515C01F01F01AF
:1044D000C84070472C00002000100240BE6E00084B
:1044E0000548064900688968054AC1F3C221515C44
:1044F00001F01F01C84070472C000020001002404E
:10450000BE6E0008184910B58868C0F381021748CC
:10451000012A0BD08A68164BC2F38102022A06D008
:104520008A68C2F38102032A03D0002010BD184616
:1045300010BDCA6802F00304CA68C2F30312521C19
:10454000032C02D0B0FBF2F001E0B3FBF2F0CA683A
:10455000C968C2F306225043C1F34161491C4900B6
:10456000B0FBF1F010BD0000001002400024F40088
:1045700000366E012DE9F84304007AD02078FA4D18
:10458000C00747D0A868E96800F00C0001F00301FB
:104590000C2802D0082817D001E0032914D0606845
:1045A000B0F5803F17D0B0F5A02F286817D020F4C1
:1045B00080302860286820F4802028606068E0B19E
:1045C000FFF710FC064614E02868800322D56068D7
:1045D0000028D2D01EE0286840F48030EDE740F497
:1045E00080202860F7E700BFFFF7FCFB801B6428F2
:1045F00070D828688003F7D50CE0FFF7F3FB064678
:1046000005E000BFFFF7EEFB801B6428F0D82868A8
:104610008003F7D4207880074CD5A868E96800F0BB
:104620000C0001F003010C2802D004280DD001E099
:1046300002290AD0E068002828682BD040F4807056
:104640002860FFF7CFFB064619E02868400502D531
:10465000E068002891D06868217C20F0FE4040EAA4
:1046600001606860C1480068FFF7DAFB002800D1EC
:1046700020E076E1FFF7B6FB801B0228B8D8286857
:104680004005F7D56868217C20F0FE4040EA0160D3
:1046900068600FE020F480702860FFF7A3FB0646F7
:1046A00005E000BFFFF79EFB801B0228A0D828680A
:1046B0004005F7D42078000729D560690028D5F88F
:1046C000940013D040F00100C5F89400FFF78AFB76
:1046D000064606E090E000BFFFF784FB801B02283F
:1046E00086D8D5F894008007F6D510E020F00100B8
:1046F000C5F89400FFF776FB064604E0FFF772FB6F
:10470000801B022878D8D5F894008007F6D420784A
:10471000400761D5A86D0026C00008D4A86D40F000
:104720008050A865A86D012600F080500090904848
:104730000168C90511D40168804641F480710160A7
:10474000FFF750FB074604E0FFF74CFBC01B0228B5
:1047500052D8D8F80000C005F6D5A068012815D0B9
:104760000528D5F8900016D020F00100C5F890007B
:10477000D5F8900020F00400C5F89000A06841F240
:104780008838B8B1FFF72EFB07460EE0D5F8900049
:1047900040F00100F0E740F00400C5F89000F5E7B4
:1047A000FFF720FBC11B414526D8D5F890008007B4
:1047B000F6D50CE0FFF716FB074604E0FFF712FB07
:1047C000C11B414518D8D5F890008007F6D41EB11A
:1047D000A86D20F08050A8652078800629D5A069B2
:1047E0000028D5F8980013D040F00100C5F89800D3
:1047F000FFF7F8FA064606E077E000BFFFF7F2FAA7
:10480000801B022877D8D5F898008007F6D510E0ED
:1048100020F00100C5F89800FFF7E4FA064604E02E
:10482000FFF7E0FA801B022865D8D5F898008007CA
:10483000F6D4E069F0B3A968C1F38101032961D01E
:104840000228286820F0807028600BD0E86820F0EB
:104850000300E860E86847490840E860FFF7C2FAEB
:1048600004464BE0FFF7BEFA064604E0FFF7BAFA4B
:10487000801B02283FD828688001F7D4F4E908019A
:104880006FF00F0202EB01110843218A520449081C
:1048900002EB4151A26841EA02210843217D4FF019
:1048A0007E42490802EB41610843217B40EAC16036
:1048B000E96800E062E0304A11400843E860286897
:1048C00040F080702860E86840F08070E860FFF792
:1048D00089FA044605E000BFFFF784FA001B0228AE
:1048E00009D828688001F7D548E004E0FFF77AFA94
:1048F000001B022802D90320BDE8F8832868800144
:10490000F4D43BE00128F7D0E868226A00F0030104
:10491000914226D1616A00F0F002090110399142FA
:104920001FD1A26A00F4FE41B1EB022F19D194F815
:104930002C2000F07841B1EBC26F12D1218E00F42F
:10494000C00249084905A1F50011914209D194F826
:10495000341000F0C06049084906A1F1007181429D
:104960000CD00120C8E70000001002402000002009
:1049700000700040FFFFEEFE0C809F010020BBE7AF
:104980004FF0E0210428086903D020F004000861FA
:10499000704740F00400FAE710B5401EB0F1807F88
:1049A00001D3012010BD4FF0E02460610F2160179A
:1049B00001F0D4FC0020A06107202061002010BD80
:1049C000F0B590F83C20012A43D0012580F83C50F6
:1049D000022280F83D2003685A689C681E4E1F4FD3
:1049E000DFF87CC0B34203D0BB4201D0634504D1A1
:1049F00022F4700E4A6842EA0E02DFF868E002EA2A
:104A00000E02D1F800E04EEA020EC3F804E002689C
:104A1000B24212D0B2F1804F0FD0134B9A420CD059
:104A2000124B9A4209D0124B9A4206D0BA4204D095
:104A3000104B9A4201D0624504D1896824F080036A
:104A40001943916080F83D50002180F83C100846E1
:104A5000F0BD0220F0BD0000002C014000340140F8
:104A6000005001408FFFFFFD00040040000800409F
:104A7000000C00400040014010B5040003D094F841
:104A80003D0010B107E0012010BD002084F83C007B
:104A9000204600F023F8022084F83D00211D206804
:104AA00001F002F8012084F8480084F83E0084F800
:104AB0003F0084F8400084F8410084F8420084F804
:104AC000430084F8440084F8450084F8460084F8E4
:104AD000470084F83D00002010BD000008B50068C4
:104AE0000649884208D10648816D41F0020181657E
:104AF000806D00F00200009008BD0000000400403E
:104B00000010024090F83D10012901D001207047AB
:104B1000022180F83D1000681249884214D0B0F19B
:104B2000804F11D0104988420ED0104988420BD0D6
:104B30000F49884208D00F49884205D00E49884263
:104B400002D00E49884207D181680D4A11400629DA
:104B500006D0B1F5803F03D0016841F0010101604A
:104B600000207047002C0140000400400008004075
:104B7000000C004000340140004001400050014062
:104B80000700010070B5044690F83C00002501289C
:104B90001CD0012684F83C60022084F83D00226885
:104BA0009068334B184020F47F4090600868B0F55F
:104BB000005F2ED016DC402849D009DCD0B1102887
:104BC00018D0202816D0302849D113E0022070BD1B
:104BD00050282AD0602830D070280FD0B0F5805FE0
:104BE0003DD13DE010F00F0F39D10111A1F5803119
:104BF000072934D822680146104625E0CB68D1E960
:104C00000121206800F0BAFF2068816841F0770137
:104C100009E0CB68D1E90121206800F0AFFF2068EE
:104C2000816841F4804181601AE0CA68496820685F
:104C300000F0B8FF5021206806E0CA684968206883
:104C400000F0C1FF6021206800F0A2FF08E0CA6800
:104C50004968206800F0A6FF40212068F4E701259C
:104C600084F83D60002084F83C00284670BD0000B8
:104C700088FFCEFF90F88010012918D0012180F81C
:104C800080102421C0F8841050F8641B0A680B6857
:104C900023F001030B6022F000510022026050F863
:104CA000643C19602021016202771046704702209F
:104CB00070477047704770B5044690F8800001282F
:104CC0001DD0012084F880002420C4F884002068CE
:104CD0000568026822F0010202602068826822F002
:104CE00060620A438260204600F080FF2068056011
:104CF0002020C4F88400002084F8800070BD0220C9
:104D000070BD70B5044690F8800001281DD00120C8
:104D100084F880002420C4F88400206805680268B4
:104D200022F0010202602068826822F060420A4399
:104D30008260204600F05AFF206805602020C4F8F9
:104D40008400002084F8800070BD022070BD704790
:104D5000704770472DE9F04103680446D869196827
:104D60009A6840F60F0528424FF0000509D18606E3
:104D70007ED501F0200602F080573E4378D0216FA7
:104D800027E1A94EA94F16400F40374370D0C707FF
:104D900009D0CF0507D501271F62D4F88C3043F026
:104DA0000103C4F88C3083070AD5D30708D02768DD
:104DB00002233B62D4F88C3043F00403C4F88C30F7
:104DC00043070AD5D30708D0276804233B62D4F8E9
:104DD0008C3043F00203C4F88C3003070CD501F08B
:104DE0002003334308D0266808233362D4F88C307C
:104DF00043F00803C4F88C3003050BD54B0109D5EB
:104E000026684FF400633362D4F88C3043F02003FB
:104E1000C4F88C30D4F88C30002B3AD0800609D5F9
:104E200001F0200002F08051084303D0216F09B146
:104E300020468847D4F88C0021688968490602D446
:104E400010F0280F27D0204600F090FF20688068DF
:104E500040061BD52068083050E8001F21F04001B3
:104E600040E80012002AF5D1E06F78B1704900E007
:104E700017E08163E06FFEF714FD002809D0E06FB2
:104E8000816B00E02046BDE8F04108472046FFF76F
:104E900060FFBDE8F0812046FFF75BFFC4F88C504F
:104EA000F7E7E76E2026012F7ED1C7067CD5CF0617
:104EB0007AD51020186220688068400642D5E16FDC
:104EC000086840680004000CE3D0B4F85C2082421B
:104ED000DFD9A4F85E000868006880062BD420683B
:104EE00050E8001F21F4807140E80012002AF6D13A
:104EF0002068083050E8001F21F0010140E800124E
:104F0000002AF5D12068083050E8001F21F0400148
:104F100040E80012002AF5D1C4F88860E5662168EF
:104F200051E8000F20F0100041E80002002AF6D1FD
:104F3000E06FFEF781FCB4F85C00B4F85E10401A34
:104F400081B22CE0B4F85C00B4F85E10401A81B273
:104F5000B4F85E0000289CD000299AD0226852E85C
:104F6000000F20F4907042E80003002BF6D12E4B86
:104F7000DB432068083050E8002F1A4040E8002743
:104F8000002FF6D1C4F88860E5662567226852E8EC
:104F9000000F20F0100042E80003002BF6D120465D
:104FA000FFF787FE75E7FFE7C70209D5570207D568
:104FB0004FF4801018622046BDE8F041FFF7C8BEEC
:104FC00003060AD501F0800302F40002134304D063
:104FD000616F00297FF456AF5BE7420611D54A06A0
:104FE0000FD52046016851E8002F22F0400241E829
:104FF0000023002BF6D1C0F88460456700F096F8D6
:1050000047E7020206D54A0004D52046BDE8F04134
:10501000FFF79DBEC001C5D50029C3DA2046BDE813
:10502000F041FFF747BE000001000010200100041E
:10503000595D000810B5040003D0D4F8840010B105
:1050400007E0012010BD002084F88000204600F019
:1050500027F82420C4F884002068016821F00101A9
:105060000160204600F0ACFE0128EBD0A06A10B130
:10507000204600F0DDFD2068416821F49041416048
:105080002068816821F02A0181602068016841F070
:10509000010101602046BDE8104000F02DBE000077
:1050A00010B59CB00446142115A8FBF70EFB542143
:1050B0006846FBF70AFB1A49206888422ED1012076
:1050C0000024CDE900046846FEF78AFF08B1FDF729
:1050D00074FE1448016E41F480410166016E01F4D2
:1050E00080411A91C16C41F00401C164C06C15A9E2
:1050F00000F004001A90302015900220CDE916042B
:105100000720CDE918400848FEF73EFD0022114671
:105110002520FEF7CDFE2520FEF7BCFE1CB010BDFD
:105120000038014000100240000800487047FEE7C8
:1051300070B50D46044600F05FF8782000F020F8C6
:1051400000F0B0F8204600F01BF800F0ABF828465D
:1051500000F016F800F0A6F8BDE8704000F076B850
:1051600010B5064C012211022046FEF736FE2046FD
:105170000122BDE810405102FEF72FBE0004004896
:105180002DE9F0411B4C06462046216821F44021C0
:105190002160216841F4802121604FF400770022D2
:1051A0003946FEF71AFE00254FF48078300601D507
:1051B000012200E0002241462046FEF70EFE700666
:1051C000060E022001F0E2F9012239462046FEF7E0
:1051D00004FE022001F0DAF9002239462046FEF7EB
:1051E000FCFD022001F0D2F96D1CEDB2082DDDD3DB
:1051F000BDE8F0810004004870B5134C206820F42D
:1052000040202060206840F48020206001221502A8
:1052100029462046FEF7E1FD01225602314620468E
:10522000FEF7DBFD042001F0B1F9002229462046FB
:10523000FEF7D3FD042001F0A9F931462046BDE870
:1052400070400022FEF7C9BD0004004870B5144C40
:10525000206820F440202060206840F480202060F6
:105260004FF40075002229462046FEF7B6FD6E1069
:10527000002231462046FEF7B0FD042001F086F9F9
:10528000012229462046FEF7A8FD0122314620468C
:10529000FEF7A3FDBDE87040042001F077B90000DF
:1052A000000400482DE9F041184C0025206820F446
:1052B00040202060206820600122160231462046EE
:1052C000FEF78BFD012001F061F9012257023946FA
:1052D0002046FEF782FD012001F058F908E06D1C20
:1052E000EDB2FA2D04D9FFF7B1FF0120BDE8F0813E
:1052F00031462046FEF76CFD0028F0D100223946E9
:105300002046FEF76AFD0020F0E700000004004898
:1053100000EB8100006E00F0F84070478068C0F339
:10532000C00070478068C0F3800070478068C0F399
:1053300080007047C06810F4406F01D000207047B3
:1053400001207047042303EAD15310B51844436980
:10535000C1F3045107248C40A3438A4013434361A3
:1053600010BD00EB8100016E21F000411143016688
:105370007047000030B58BB00024089409942021B8
:1053800068460A94FBF7A1F91E484FF0A041042596
:1053900001604FF44031C0E90114C4600461C0E908
:1053A0000545047744770121016280F824404FF4D9
:1053B0009061C1622902016380F83840C46380F8BB
:1053C0004040FEF731F808B1FDF7F7FC08A90D4899
:1053D0000894FDF73DFD08B1FDF7EFFC0A48009089
:1053E0000620CDE901047F200594CDE90305694637
:1053F0000448FDF7DBFD002801D0FDF7DEFC0BB013
:1054000030BD00006C020020020030040D4808B5D9
:10541000816C41F004018164816C01F00401009110
:10542000816C41F001018164806C002200F0010078
:10543000009011460B20FEF73BFDBDE808400B2015
:10544000FEF728BD001002402DE9F04387B014217B
:105450006846FBF73AF93B48C16C41F00401C1646E
:10546000C16C01F004010591C16C41F02001C164DF
:10547000C16C01F020010591C16C41F00101C164D2
:10548000C16C01F001010591C16C41F00201C164E0
:10549000C06C2D4F00F00200059000220F2138460D
:1054A000FEF79BFCDFF8A49000224EF20231484642
:1054B000FEF793FC4FF480764FF09048002231467F
:1054C0004046FEF78AFC700100904FF488100024DB
:1054D000CDE9010469463846FEF756FB0F20012549
:1054E000CDE900050220CDE9024069463846FEF7C5
:1054F0004BFB4EF202000090CDE90154694648464C
:105500000394FEF741FB0096CDE9015469464046FD
:105510000394FEF739FB4FF4407000901120CDE961
:1055200001050320039069464846FEF72DFB002243
:1055300011462820FEF7BCFC2820FEF7ABFC07B084
:10554000BDE8F08300100240000800480004004855
:1055500010B588B000241748009401940294039475
:105560000494059412490694C0E900144FF6FF71A3
:10557000C0E9024104618461FFF77EFA08B1FDF7DA
:105580001CFC4FF48050009069460A48FFF7FAFA75
:1055900008B1FDF712FC2020049004A906940548E8
:1055A000FFF70EFA002801D0FDF707FC08B010BD88
:1055B0000004004038030020184810B51649016067
:1055C0004FF4E1314160002181600C22C160C0E9EB
:1055D00004128161C161016241628162FFF72AFDAB
:1055E00008B1FDF7EAFB00210C48FFF78AFB08B180
:1055F000FDF7E3FB00210948FFF75DFB08B1FDF76C
:10560000DCFB0648FFF736FB002803D0BDE810405E
:10561000FDF7D3BB10BD000000380140840300201B
:10562000FEE700000A4A01200849526808E00B180A
:1056300013F8013C0D2B02D10B5C0A2B04D0401C4B
:105640009042F4D3002070470120704714040020DA
:1056500058020020094881680968C96989060CD583
:1056600007490A68074B41685A54491C416064293C
:1056700003D10021416001210170704758020020D0
:105680002438014014040020034988600068016840
:1056900041F02001016070475802002030B50546F6
:1056A000FFF7C0FF002815D00C4800240C4A4068C2
:1056B0000AE0115D295534B12B1913F8013C0D2B6B
:1056C00001D10A2907D0641C8442F2D3204600F09D
:1056D0002FFE204630BD641CF8E700005802002071
:1056E00014040020FEE70020AFF3008070B50646EA
:1056F0005FF0000404F1B000C0B200F082FD0020B1
:1057000000F07FFD102000F07CFD0025304600F009
:105710007CFD6D1CEDB2802DF8D3641CE4B2082C26
:10572000E8D370BD10B5FFF71BFD642000F028FF23
:10573000AE2000F066FD202000F063FD102000F098
:1057400060FDB02000F05DFDC82000F05AFD002093
:1057500000F057FD102000F054FD402000F051FDF6
:10576000812000F04EFD204C607800F04AFDA12021
:1057700000F047FD207808B1A62000E0A72000F047
:1057800040FDA82000F03DFD3F2000F03AFDA420A0
:1057900000F037FDD32000F034FD002000F031FD93
:1057A000D52000F02EFDF02000F02BFDD92000F0D8
:1057B00028FD222000F025FDDA2000F022FD122035
:1057C00000F01FFDDB2000F01CFD202000F019FD83
:1057D0008D2000F016FD142000F013FDBDE81040F0
:1057E000AF2000F00EBD00003200002010B50446CE
:1057F000B031C8B200F005FD102040EA141000F0EE
:1058000000FD04F00F00BDE8104040F0010000F082
:10581000F8BC00002DE9F0410024203A0F468046F4
:10582000012B21D0022B1DD1D6B2FFF7DFFF164D81
:1058300004EB0610285C00F0E8FC641CE4B2082CC1
:10584000F6D37F1CF9B24046FFF7D0FF5FF00004AB
:1058500004EB06102844007A00F0D7FC641CE4B284
:10586000082CF5D3BDE8F081D5B2FFF7BFFF07499B
:1058700005EB450001EB4005285D00F0C6FC641C0B
:10588000E4B2062CF8D3EDE7FC700008CE6E0008F9
:105890007FB514460D46064653EC102B08A168460A
:1058A000FAF7C4FD00208DF80F0023466A4629460A
:1058B000304600F04DF86846FAF7E8FE04B070BDD7
:1058C000252E336C66000000FEB5151E064605D079
:1058D00009DA2D208DF80000554207E03022FFF74D
:1058E00099FF0120FEBD20208DF8000001246A46AA
:1058F0000A2008E095FBF0F700FB175795FBF0F541
:1059000030371755641C002DF4DC002010550120A1
:1059100004EBD4750AE000BF271A12F800E012F871
:1059200007C002F800C002F807E0401CB0EB650FAA
:10593000F2DD9DF800002D28304604D0521C00F006
:1059400007F8601EFEBD00F003F82046FEBD000013
:105950002DE9F047002591468A460446012B22D0C6
:10596000DFF8BC80022B24D155E02038C7B27E2C52
:1059700004D90AF10100002400F0FF0A5146204634
:10598000FFF734FF07EB4700002608EB4007B85D40
:1059900000F03BFC761CF6B2062EF8D3A41D6D1C5D
:1059A000E4B2EDB201E0DFF87C8019F805000028D0
:1059B000DBD1BDE8F0872038C7B2782C04D90AF1D2
:1059C0000100002400F0FF0A51462046FFF70EFFB9
:1059D0005FF0000606EB071118F8010000F015FC57
:1059E000761CF6B2082EF5D30AF10100C1B22046AA
:1059F000FFF7FCFE5FF0000606EB071101EB080065
:105A0000007A00F002FC761CF6B2082EF4D30834BB
:105A10006D1CE4B2EDB219F805000028CBD1C8E73F
:105A2000FC700008CE6E000870477047FEF7E0B9C2
:105A300010B594B038216846FAF747FE14210EA835
:105A4000FAF743FE0020FEF765FA012000900004FB
:105A5000032406210190CDE9084102205521CDE91A
:105A60000A1007900C900D906846FEF783FD08B170
:105A700072B6FEE70F20CDE90E04002010901190C1
:105A8000129004210EA8FEF72BFC002801D072B65C
:105A9000FEE714B010BD00000248016841F4700137
:105AA0000160704788ED00E02DE9F04F02682A4B55
:105AB0002A4E2B4FDFF8ACC02B4C2C4D4FF0804BB7
:105AC00098420BD0584509D0B04207D0B84205D013
:105AD000604503D0A04201D0A84204D122F0700852
